:100000000C9427010C9451010C9451010C94510152
:100010000C9451010C9451010C9451010C94510118
:100020000C9451010C9451010C9451010C94510108
:100030000C9451010C9451010C9451010C945101F8
:100040000C9451010C9451010C9451010C945101E8
:100050000C9451010C9451010C9451010C94D30B4C
:100060000C9451010C94400F0C94770F0C94510197
:100070000C9451010C94E5020C9451010C94510123
:100080000C9451010C9451010C9451010C945101A8
:100090000C9433100C946C100C9451010C9451017D
:1000A0000C9451010C9451010C945D0C0C94510171
:1000B0000C9451010C9451010C9451010C948E0B31
:1000C0000C9451010C9451010C9451019F08B008FB
:1000D000C108D708ED0803091B093409616C69766A
:1000E000657365743A00616C697665676574006F65
:1000F0006E616D65676574006E616D65676574003E
:100100006D6366677365743A006D636667676574EF
:1001100000616C697665006670776D67657400666E
:1001200070776D7365743A006770696F633A007336
:100130006572766F7365743A00736572766F676582
:100140007400687767657400656E643A0061646482
:100150003A0073746172743A006E616D6573657410
:100160003A006F6E616D657365743A007265736510
:1001700074006C303A006C313A0070696E6700733D
:10018000643A007277007677007269636874756EFE
:10019000673A0073746F70616C6C006F6666007311
:1001A000746F70003C616C697665693A003C6F6EF3
:1001B000616D65693A003C6E747970693A313E0050
:1001C0003C6C6F673A003C6D636667693A003C6659
:1001D00070776D693A003C75693A003C73657276D8
:1001E0006F693A003C6877693A30313E005468657F
:1001F0004F776E6572004C6F6B2058003C706F6ECD
:10020000673E003C69616D3A313A003C73643A00E4
:100210003C6572726F723A6D6F746F723A003A0099
:100220003E0035006C6F6B626173697300000C9463
:10023000D7080C94C1080C9434090C94ED080C9464
:100240009F080C9403090C941B090C94B00811240A
:100250001FBECFEFD1E2DEBFCDBF00E00CBF14BEAA
:1002600088E10FB6F89480936000109260000FBE92
:1002700012E0A0E0B2E0E6E2F6E200E00BBF02C06E
:1002800007900D92AE32B107D9F711E1AEE2B2E0BC
:1002900001C01D92A03FB107E1F70E94C10A0C9472
:1002A00011130C940000809164008E7F8093640091
:1002B0000E94350780934307882309F498C090B3C0
:1002C0008095892380BB80988FEF80937E008091FA
:1002D0007A008F7D80937A0080917C008F7D80935F
:1002E0007C0080917A00846080937A0080917A000B
:1002F000826080937A0080917A00816080937A0096
:1003000080917C008F7780937C0080917C0080645A
:1003100080937C00EFEBF1E18FEF9FEF819391935E
:1003200021E1EF3CF207D1F7109242071092440707
:100330002091430730E080914407A90102C0559500
:1003400047958A95E2F740FD0BC0809144078F5F87
:100350008093440780914407883068F310924407E3
:1003600080E090E041E050E02091440730E0082E2A
:1003700002C0359527950A94E2F760917C0020FF32
:100380000AC09A01082E01C0220F0A94EAF7622BD4
:1003900060937C000AC09A01082E01C0220F0A94C3
:1003A000EAF72095262320937C000196833091055F
:1003B000D9F680917C00877F80937C0080917C00BF
:1003C0008F7E80937C0080917B00877F80937B0071
:1003D00080917A00806880937A0080917A008860AA
:1003E00080937A0080917A00806480937A000895E7
:1003F000BF92CF92DF92EF92FF920F931F93CF9312
:10040000DF93CDB7DEB72A970FB6F894DEBF0FBEE5
:10041000CDBF8C018FEBC82E81E1D82EE12CF12CC1
:1004200091E4B92E8091430790E00E2C02C095957F
:1004300087950A94E2F780FF3DC0F8018B2D119259
:100440008A95E9F745E050E066ED71E0C8010E9449
:10045000EC114AE0BE016F5F7F4FC7010E944B1253
:1004600041E450E0BE016F5F7F4FC8010E941D1242
:1004700041E450E06EE172E0C8010E94CD114AE013
:10048000BE016F5F7F4FF601808191810E944B1208
:1004900041E450E0BE016F5F7F4FC8010E941D1212
:1004A00041E450E060E272E0C8010E94CD11C80151
:1004B0000E943311FFEFEF1AFF0A82E0C80ED11C31
:1004C000E8E0EE16F10409F0ADCF2A960FB6F894E5
:1004D000DEBF0FBECDBFDF91CF911F910F91FF9077
:1004E000EF90DF90CF90BF900895E0914407809106
:1004F000BD119091BE11F0E0EE0FFF1FE154FE4ED2
:100500009695879596958795918380831092BE11D5
:100510001092BD1110924207809144078F5F809323
:10052000440780914407883010F0109244072091CE
:10053000430730E080914407A90102C055954795D3
:100540008A95E2F740FD0BC0809144078F5F80934E
:10055000440780914407883068F31092440780E094
:1005600090E041E050E02091440730E0082E02C0C6
:10057000359527950A94E2F760917C0020FF0AC028
:100580009A01082E01C0220F0A94EAF7622B6093A9
:100590007C000AC09A01082E01C0220F0A94EAF7D3
:1005A0002095262320937C00019683309105D9F66F
:1005B000F894809190078B7F809390077894809136
:1005C0007A00806480937A0008951F920F920FB68C
:1005D0000F9211242F933F938F939F932091780034
:1005E0003091790080914207882351F08091BD11AC
:1005F0009091BE11820F931F9093BE118093BD11F5
:10060000809142078F5F8093420780914207853037
:1006100030F08091900784608093900705C08091AE
:100620007A00806480937A009F918F913F912F91FF
:100630000F900FBE0F901F901895EF92FF920F939F
:100640001F93CF93DF93CDB7DEB7CB54D1090FB64D
:10065000F894DEBF0FBECDBF8E010F5F1F4F81E448
:10066000D8011D928A95E9F78091470791E0980F8C
:1006700019F09093470703C08E5F809347076FE997
:1006800071E08DE497E00E94C411892B29F4109247
:100690004A0710924907C3C26BE971E08DE497E005
:1006A0000E94C411892B99F363E971E08DE497E00E
:1006B0000E94C411892B59F349E050E069E871E0C8
:1006C0008DE497E00E940012892B01F542E050E092
:1006D00066E577E0C8010E943C1266E871E0C80157
:1006E0000E94C411892B29F4F89481E080930302BD
:1006F0000BC063E871E0C8010E94C411892B09F0A6
:100700008EC2F89410920302789489C243E050E0BC
:100710006FE771E08DE497E00E940012892BD9F415
:10072000E0E5F7E0DF010D900020E9F7AD0141556C
:100730005740BF01C8010E943C12C8010E94A61187
:100740008115B4E09B0710F080E090E090934A0799
:100750008093490764C26AE771E08DE497E00E94E4
:10076000C411892B19F48CEF91E0A6C043E050E04E
:1007700066E771E08DE497E00E940012892B91F406
:10078000E0E5F7E0DF010D900020E9F7AD0141550C
:100790005740BF01C8010E943C12C8010E94A61127
:1007A0004FEF1BC043E050E062E771E08DE497E05B
:1007B0000E940012892BB9F4E0E5F7E0DF010D900B
:1007C0000020E9F7AD0141555740BF01C8010E9423
:1007D0003C12C8010E94A61140E0682F8CE190E015
:1007E0000E949E0A1CC26CE671E08DE497E00E94B4
:1007F000C411892B69F4F89428E088E190E00FB6E1
:10080000F894A895809360000FBE20936000FFCFFE
:1008100049E050E062E671E08DE497E00E9400124A
:10082000892B29F486E597E00E941D06F8C16FEE3A
:1008300070E08DE497E00E94C411892B61F441E4DB
:1008400050E06DEA71E0C8010E94EC11CE010996FA
:100850000E942F06A8C148E050E069E571E08DE4F0
:1008600097E00E940012892B29F485E597E00E9409
:100870003506D5C168EF70E08DE497E00E94C411A1
:10088000892B61F441E450E063E072E0C8010E940A
:10089000EC11CE0108960E94470685C162E471E022
:1008A0008DE497E00E94C411892B49F484EE91E015
:1008B0000E94311186EB91E00E943111B0C169E3D1
:1008C00071E08DE497E00E94C411892B09F053C0B8
:1008D00041E450E06BED71E0C8010E94EC118091A1
:1008E000EB114AE0BE016E5B7F4F90E00E944B121D
:1008F00041E450E0BE016E5B7F4FC8010E941D12B3
:1009000041E450E06EE172E0C8010E94CD11809197
:10091000EC114AE0BE01665F7F4F90E00E944B12EF
:10092000F12C8091EC1141E450E0F81608F03DC143
:100930006EE172E0C8010E94CD118F2D90E0FC01A4
:10094000E152FE4E208123962FAF2397FC01EB51FD
:10095000FE4E8081805D24968FAF249725961FAE32
:10096000259741E450E0BE016E5B7F4FC8010E94B5
:100970001D12F394D6CF6FE271E08DE497E00E94F0
:10098000C411892BB9F5809156078053909158076F
:10099000823008F044C1973008F041C18093EB11D8
:1009A0009093EC1129E537E0AFEDB1E165EE71E12F
:1009B00010E02D5F3F4F191789F0A90142505109EE
:1009C000FA0140814D93A90141505109FA0140813A
:1009D0004053FB014193BF011F5FEBCF0E945406C0
:1009E000812F0E94600665EE71E18FED91E10E941A
:1009F000750615C146E050E068E271E08DE497E0CD
:100A00000E940012892BA9F541E050E063E577E0F0
:100A1000C8010E943C12C8010E94A6117C0181E419
:100A2000D8011D928A95E9F741E050E065E577E04D
:100A3000C8010E943C12C8010E94A611A7015527B7
:100A4000882359F088B121E030E0042E01C0220F44
:100A50000A94EAF7822B88B9E2C088B121E030E03D
:100A6000042E01C0220F0A94EAF72095282328B902
:100A7000D6C048E050E06FE171E08DE497E00E945D
:100A80000012892BE9F441E050E065E577E0C80108
:100A90000E943C12C8010E94A6119FEF980F993046
:100AA00008F088E090910102891709F4B8C080939A
:100AB00001020E944207809101020E944D08AFC0CE
:100AC00067E171E08DE497E00E94C411892B51F435
:100AD00041E450E06EEC71E0C8010E94EC1180919D
:100AE00001025AC061E171E08DE497E00E94C411F7
:100AF000892B09F494C066EE70E08DE497E00E94C3
:100B0000C411892B71F441E450E064EA71E0C8013A
:100B10000E94EC110E9450074AE0BE01675F7F4FC0
:100B20003FC049E050E06CED70E08DE497E00E943A
:100B30000012892B01F5E6E5F7E0DF010D900020BA
:100B4000E9F7AD0147555740BF01C8010E943C126B
:100B5000C8010E94A61197FF02C083E090E0209197
:100B6000020230E08217930709F459C08093020211
:100B70000E94540754C069E071E08DE497E00E9440
:100B8000C411892BD9F441E450E066EC71E0C8014E
:100B90000E94EC11809100024AE0BE01685F7F4F25
:100BA00090E00E944B1241E450E060E272E0C80124
:100BB0000E94CD11C8010E94331131C048E050E0BD
:100BC00060E071E08DE497E00E940012892B11F53E
:100BD000E5E5F7E0DF010D900020E9F7AD014655AE
:100BE0005740BF01C8010E943C12C8010E94A611D3
:100BF000883028F485E092E00E94331188E09091DB
:100C00000002891761F0809300020E944B070E9446
:100C10004F0905C080914707815080934707C55B06
:100C2000DF4F0FB6F894DEBF0FBECDBFDF91CF917F
:100C30001F910F91FF90EF900895FC01019000200B
:100C4000E9F73197E81BF90BE932F10538F4AF0108
:100C50004F5F5F4F65E470E00C94CD12089549E258
:100C600050E065E470E00C94A912FC0101900020B2
:100C7000E9F73197E81BF90BE932F10538F4AF01D8
:100C80004F5F5F4F6CE170E00C94CD12089549E224
:100C900050E06CE170E00C94A9128AE090E00E94B0
:100CA000B9128093EB110895682F8AE090E00C94BC
:100CB000DD128BE090E00E94B9128093EC11089550
:100CC000682F8BE090E00C94DD1246E050E06CE081
:100CD00070E08FED91E10E94A91246E050E062E1E0
:100CE00070E085EE91E10C94A912CF93DF93EB01B4
:100CF00046E050E06CE070E00E94CD1246E050E02B
:100D000062E170E0CE01DF91CF910C94CD12FF92A1
:100D10000F931F93CF93DF93CDB7DEB7A9970FB68D
:100D2000F894DEBF0FBECDBF4DED5CEC6BEB7AEA05
:100D300080E090E00E94EF1264E070E084E090E0D8
:100D40000E94FB1261E086E090E00E94DD1268E004
:100D500087E090E00E94DD1268E088E090E00E9469
:100D6000DD1263E089E090E00E94DD1260E08AE03D
:100D700090E00E94DD1262E08BE090E00E94DD12C4
:100D800082E48093DF111092E5118093E01181E0FD
:100D90008093E61165EE71E18FED91E10E94750699
:100DA00060E088E190E00E94DD1260E089E190E07F
:100DB0000E94DD1260E08AE190E00E94DD1260E0B6
:100DC0008BE190E00E94DD1289E2F82E8E010F5F28
:100DD0001F4FF8018F2D11928A95E9F745E050E0F9
:100DE00066EF71E0C8010E940E1249E250E06CE12A
:100DF00070E0C8010E94CD12F8011192FA94E9F74F
:100E000048E050E06DEE71E0C8010E940E1249E228
:100E100050E065E470E0C8010E94CD12A9960FB6BB
:100E2000F894DEBF0FBECDBFDF91CF911F910F9120
:100E3000FF9008950197039710F40C948706089586
:100E400080E090E00E94C1126D3D7C4C8B4B9A4A31
:100E500011F00C94870688E090E00E94C71284305D
:100E6000910510F40C941A07089586E090E00C9414
:100E7000B912682F86E090E00C94DD1287E090E0D4
:100E80000C94B912682F87E090E00C94DD1288E092
:100E900090E00C94B912682F88E090E00C94DD1279
:100EA00089E090E00C94B912682F89E090E00C94EE
:100EB000DD12843469F028F4823489F488E190E00A
:100EC0000CC0853441F0873451F48BE190E005C0CB
:100ED00089E190E002C08AE190E00C94B91280E0D0
:100EE00008951F93CF93DF931F921F92CDB7DEB764
:100EF000162F682F88E190E02A8349830E94DD1233
:100F0000612F89E190E00E94DD124981642F8AE11E
:100F100090E00E94DD122A81622F8BE190E00F9019
:100F20000F90DF91CF911F910C94DD12109225014B
:100F3000109224018FEF90E0909329018093280173
:100F4000E1E2F1E080818460808380818D7F808315
:100F500080818E7F808380818F7E80838081886086
:100F60008083E0E2F1E080818D7F808380818E7FCD
:100F70008083E3E7F0E080818260808308958823A6
:100F800021F0813009F445C008951092C1051092F6
:100F9000C0051092BF051092BE057093C500609306
:100FA000C4008091C10080618093C1008091C10024
:100FB00088608093C1008091C1008B7F8093C100C5
:100FC0008091C2008F778093C2008091C2008F7B96
:100FD0008093C2008091C20082608093C2008091A1
:100FE000C20084608093C2008091C2008F7E809393
:100FF000C2008091C2008F7D8093C2008091C200A8
:10100000877F8093C2008091C10080688093C10077
:1010100008951092BC041092BB041092BA0410926E
:10102000B9047093CD006093CC008091C9008061B9
:101030008093C9008091C90088608093C900809125
:10104000C9008B7F8093C9008091CA008F778093FD
:10105000CA008091CA008F7B8093CA008091CA0029
:1010600082608093CA008091CA0084608093CA0025
:101070008091CA008F7E8093CA008091CA008F7DC4
:101080008093CA008091CA00877F8093CA008091B4
:10109000C90080688093C9000895109248079FEFA7
:1010A000980F993008F085E0259A109289001092E7
:1010B00088009091000290FF05C0269A10928B0044
:1010C00010928A0090918000906890938000909197
:1010D00080009F7B9093800090918000906290931D
:1010E0008000909180009F7E90938000909181007D
:1010F0009F7E9093810090918100977F90938100D3
:1011000090E0FC013297E830F10530F4EA59FF4FE6
:10111000809180000C94A011809180008260809367
:1011200080008091800081608093800080918100A8
:101130008B7F8093810080918100826074C0826087
:1011400080938000809180008E7F809380008091CA
:1011500081008B7F809381008091810082607BC0C1
:101160008D7F8093800080918000816080938000DB
:10117000809181008B7F80938100809181008260CB
:1011800083C0826080938000809180008160809322
:101190008000809181008B7F80938100809181000D
:1011A000826080938100809181008E7F41C0826047
:1011B00080938000809180008E7F8093800080915A
:1011C00081008B7F80938100809181008260809379
:1011D0008100809181008E7F43C08D7F809380004D
:1011E00080918000816080938000809181008B7F5E
:1011F0008093810080918100826080938100809142
:1012000081008E7F46C08260809380008091800044
:10121000816080938000809181008B7F809381002A
:10122000809181008D7F8093810080918100816019
:101230008093810008958260809380008091800077
:101240008E7F80938000809181008B7F80938100CE
:10125000809181008D7F80938100809181008160E9
:101260008093810081E018C08D7F80938000809101
:101270008000816080938000809181008B7F8093CB
:101280008100809181008D7F809381008091810019
:1012900081608093810082E08093480708950E94D6
:1012A00047078093000281B1836081B98091000279
:1012B00083FF03C081B1837F81B91098119A809117
:1012C000000280FF0CC081B1806381B9809100026F
:1012D00084FF03C081B18F7381B91498159A0E945D
:1012E0003E079FEF980F993008F088E08093010245
:1012F000809101020C944D0811988091000280FDAC
:1013000015980895119A8091000280FD159A08950C
:1013100011988091000280FD159885E08A95F1F77B
:101320000000119A8091000280FD159A08950F9394
:101330001F93CF93DF93CDB7DEB7C154D1090FB65A
:10134000F894DEBF0FBECDBF209145071092450730
:101350009091000293FF0CC0029B03C081E0809338
:101360004507039B05C08091450782608093450730
:1013700094FF0EC0069B05C0809145078460809352
:101380004507079B05C08091450788608093450706
:1013900080914507882331F1211124C08E010F5F10
:1013A0001F4F81E4F80111928A95E9F74EE050E071
:1013B00060E172E0C8010E94EC116091450770E0A5
:1013C00080E090E02AE0AE01425F5F4F0E9456123B
:1013D00041E450E060E272E0C8010E94CD11C80112
:1013E0000E943311CF5BDF4F0FB6F894DEBF0FBE04
:1013F000CDBFDF91CF911F910F91089520E030E094
:101400002817390749F0EFE9FFE03197F1F700C0FD
:1014100000002F5F3F4FF4CF0895FC0180818823A7
:1014200049F08A3009F4108280818D3009F41082ED
:101430003196F4CF08951F93CF93DF933091EC1141
:1014400085EE91E1AFEDB1E1FC01C0E0D0E02E2FDF
:10145000281B231760F42D91223419F42081D20F18
:1014600004C0273411F42081C20F3196F0CF14B19B
:1014700082E40E9459078F7891E0D11190E089238E
:10148000812B84B987B18FEF87B9DAB184E40E94E8
:101490005907DAB9DDB185E40E945907DDB9D3B344
:1014A00087E40E945907877191E0C11190E0892378
:1014B0008D2B83BBDF91CF911F91089586E00E9411
:1014C000C80E85EA0E941B0F8AE50E941B0F0C9430
:1014D000130FCF93C0E0CF5F8CE10E94C80E88232A
:1014E00039F0C33049F182E390E00E94FE09F3CF66
:1014F00080E80E941B0F81E00E941B0F85E20E9482
:101500001B0FC0E180E00E941B0FC150D9F78FEF85
:101510000E941B0F8BE00E941B0F8FEF0E941B0F7E
:101520008FEF0E941B0F8FEF0E941B0F8FEF0E9407
:101530001B0FCF910C94130FCF9108951F93CF934E
:10154000DF93162FD42FC0E0CF5F8CE10E94C80E2E
:10155000882339F0C33089F082E390E00E94FE09CD
:10156000F3CF81E0810F0E941B0F8D2F0E941B0F74
:10157000DF91CF911F910C94130FDF91CF911F91A9
:101580000895CF93DF93CDB7DEB7C154D1090FB61D
:10159000F894DEBF0FBECDBF19821A821B821C8257
:1015A000FE0135968DE3DF011D928A95E9F70E94D1
:1015B00020070E9450078093020269E170E081E0F9
:1015C0000E94BF070E9496070E944F090E9482094D
:1015D0000E94C20E8CE10E94690A579A0E94530130
:1015E0000E94420D0E941B0A78940E941C0E82E207
:1015F00092E00E943311D12C81E4C82E8E010F5F3E
:101600001F4F90E4E92E9FE1F92E8091020288237A
:1016100071F090914607981750F0DD24D394809193
:1016200047078111D12C1092470710924607DD2001
:1016300021F010924A07109249070E949709809161
:10164000900781FF0CC00E94220EF89480919007B1
:101650008D7F8093900778948BB180588BB980915F
:10166000900780FF4EC0F8012C2D11922A95E9F7C2
:1016700045E050E06BE072E0C8010E94EC114AE0E6
:10168000BE016B5F7F4F80914B0790914C070E948A
:101690004B1241E450E060E272E0C8010E94CD11BB
:1016A000C8010E9433118091D1119091D2118034E0
:1016B0009F4129F41092D2111092D11104C0F092DE
:1016C000D211E092D1118091D3119091D411803434
:1016D0009F4129F41092D4111092D31104C0F092BA
:1016E000D411E092D31180914307882319F0C801E7
:1016F0000E94F801F894809190078E7F8093900764
:1017000078948091900782FD0E9475020E942011BA
:10171000892B09F47ACF0E94351177CF1F920F924F
:101720000FB60F9211245F936F937F938F939F93C4
:10173000AF93BF9380918E0790918F0701969093FE
:101740008F0780938E0780918E0790918F0760E3BB
:1017500070E00E947811892B29F4809190078260B3
:101760008093900780918E0790918F07843F910519
:1017700071F4809190078160809390078091460773
:101780008F5F8093460710928F0710928E07BF914C
:10179000AF919F918F917F916F915F910F900FBE4D
:1017A0000F901F9018951F920F920FB60F92112451
:1017B0000BB60F922F933F938F939F93EF93FF93CB
:1017C0008091DD119091DE1101969093DE1180934E
:1017D000DD112091DD113091DE118091EF1190E04B
:1017E0002817390708F45CC01092ED118091DF11C1
:1017F000843409F178F48234B9F525B181E090E0C0
:101800000090E51102C0880F991F0A94E2F7282B77
:1018100025B92AC08534E1F0873431F524B381E05D
:1018200090E00090E51102C0880F991F0A94E2F73A
:10183000282B24BB19C02BB181E090E00090E5116A
:1018400002C0880F991F0A94E2F7282B2BB90CC00D
:101850002EB181E090E00090E51102C0880F991F41
:101860000A94E2F7282B2EB9E091ED11F0E0EE0F8B
:10187000FF1FEF52FE4E808191818058914C9093D2
:10188000A9008093A8008091A10081608093A100AD
:1018900085B5887F85BD16BC1092DE111092DD11D2
:1018A000FF91EF919F918F913F912F910F900BBEE0
:1018B0000F900FBE0F901F9018951F920F920FB6AA
:1018C0000F9211240BB60F922F933F934F935F9378
:1018D0008F939F93AF93BF93EF93FF934091ED113D
:1018E0008091ED119091EB11911180E090E0FC015D
:1018F000E152FE4E2081243441F198F4223409F063
:1019000043C055B121E030E0DC01AB51BE4E0C903C
:1019100002C0220F331F0A94E2F72095252325B930
:1019200033C0253411F1273479F554B321E030E088
:10193000DC01AB51BE4E0C9002C0220F331F0A9443
:10194000E2F72095252324BB1FC05BB121E030E0E6
:10195000DC01AB51BE4E0C9002C0220F331F0A9423
:10196000E2F7209525232BB90FC05EB121E030E0CE
:10197000DC01AB51BE4E0C9002C0220F331F0A9403
:10198000E2F7209525232EB94F5F2091EC114217E5
:1019900090F08091EE11882319F085B5836085BDA4
:1019A0008091A100887F8093A1001092A5001092E1
:1019B000A40040E046C02081243431F190F4223468
:1019C00009F03FC055B1FC01EB51FE4E21E030E083
:1019D000008002C0220F331F0A94E2F7522B55B940
:1019E00030C0253401F1273461F554B3FC01EB51CB
:1019F000FE4E21E030E0008002C0220F331F0A9427
:101A0000E2F7522B54BB1DC05BB1FC01EB51FE4E03
:101A100021E030E0008002C0220F331F0A94E2F779
:101A2000522B5BB90EC05EB1FC01EB51FE4E21E0C2
:101A300030E0008002C0220F331F0A94E2F7522BDD
:101A40005EB9E42FF0E0EE0FFF1FEF52FE4E8081F3
:101A500091818058914C9093A9008093A800409365
:101A6000ED11FF91EF91BF91AF919F918F915F9198
:101A70004F913F912F910F900BBE0F900FBE0F9083
:101A80001F90189581E08093EE110E945906809175
:101A9000EC11882309F4CCC00E944D060E94650613
:101AA0002091EC118AE090E0821B9109880F81500F
:101AB0008093EF111092ED118091EB11811104C010
:101AC00050E021E030E05FC08091DF118434A9F064
:101AD00078F48234F1F424B181E090E00090E511D3
:101AE00002C0880F991F0A94E2F7282B24B911C06D
:101AF0008534B1F0873409F10CC02AB181E090E05F
:101B00000090E51102C0880F991F0A94E2F7282B74
:101B10002AB94091EC1180E090E020E43FE166C0FA
:101B20002DB181E090E00090E51102C0880F991F6F
:101B30000A94E2F7282B2DB9ECCF23B381E090E093
:101B40000090E51102C0880F991F0A94E2F7282B34
:101B500023BBDFCF852F90E0FC01E152FE4E408198
:101B6000443441F1A8F4423469F444B1FC01EB512E
:101B7000FE4EC901008002C0880F991F0A94E2F747
:101B8000482B44B95F5F8091EC11581718F3C1CF0F
:101B90004534F1F04734B1F743B3FC01EB51FE4E4D
:101BA000C901008002C0880F991F0A94E2F7482BF0
:101BB00043BBE8CF4AB1FC01EB51FE4EC9010080A6
:101BC00002C0880F991F0A94E2F7482B4AB9DACF6E
:101BD0004DB1FC01EB51FE4EC901008002C0880FDF
:101BE000991F0A94E2F7482B4DB9CCCF841748F4DB
:101BF000FC01EE0FFF1FEF52FE4E31832083019652
:101C0000F5CF81E080936E008091D1119091D21137
:101C10008058914C9093A9008093A8008091720005
:101C20008260809372008091A10088608093A100FF
:101C300008951092EE110895E1EAF0E0808181604C
:101C400080830895CF93DF9380914507882321F007
:101C500010924A07109249078091490790914A07CC
:101C6000892BE1F080914B0790914C07892BB1F4BF
:101C700080910302813049F4109A8091000280FD26
:101C8000149A81E08093040209C0811107C0109862
:101C90008091000280FD149810920402D0910402F9
:101CA000C0910302DC1709F120914B0730914C07DA
:101CB00021153105D1F0E5E0F0E0C901BF010E9436
:101CC0007811261B370B2333310558F0C901BF01AA
:101CD0000E947811261B370B30934C0720934B073B
:101CE00004C010924C0710924B0720914B07309183
:101CF0004C074091490750914A0724173507F1F0E6
:101D0000DC131CC0CA01821B930BBC0197FF04C0EB
:101D100066277727681B790B6A3171055CF065E0EF
:101D200070E00E948C11620F731F70934C076093D8
:101D30004B0704C050934C0740934B072091480732
:101D400080914B0790914C07022E02C09695879583
:101D50000A94E2F7909389008093880080910002B2
:101D600080FF0DC080914B0790914C0702C0969563
:101D700087952A95E2F790938B0080938A00DF91F4
:101D8000CF9108951092B90088E98093B800089522
:101D900094EA9093BC009091BC0097FFFCCF909187
:101DA000B900987F983021F0903111F081E00895CA
:101DB0008093BB0084E88093BC008091BC0087FFC7
:101DC000FCCF8091B900887F883111F0803471F7A1
:101DD00080E0089524EA34E844E92093BC0090911F
:101DE000BC0097FFFCCF9091B900987F983011F01C
:101DF000903199F78093BB003093BC009091BC0068
:101E000097FFFCCF9091B900987F903211F09835F0
:101E100039F44093BC009091BC0094FDFCCFDDCF21
:101E200008950C94C80E84E98093BC008091BC0096
:101E300084FDFCCF08958093BB0084E88093BC00B0
:101E40008091BC0087FFFCCF9091B900987F81E022
:101E5000983209F480E0089584EC8093BC0080916E
:101E6000BC0087FFFCCF8091BB00089584E880937D
:101E7000BC008091BC0087FFFCCF8091BB0008951F
:101E80001F920F920FB60F9211240BB60F922F9341
:101E90003F934F935F938F939F93EF93FF93409163
:101EA000C0005091C60048718091AC0D8F5F90E0EA
:101EB0002091AB0D30E08217930739F08093AC0D81
:101EC000FC01E155F24F508301C042E04093AA0D5E
:101ED000FF91EF919F918F915F914F913F912F9142
:101EE0000F900BBE0F900FBE0F901F9018951F9272
:101EF0000F920FB60F9211240BB60F928F939F93F0
:101F0000EF93FF939091AE0D8091AD0D981779F0FE
:101F10008091AD0D90E001968F7799278093AD0D5C
:101F2000FC01E155F14F80818093C60005C080918E
:101F3000C1008F7D8093C100FF91EF919F918F91A0
:101F40000F900BBE0F900FBE0F901F901895109220
:101F5000AE0D1092AD0D1092AC0D1092AB0D97FF1F
:101F600004C022E02093C0009F779093C500809327
:101F7000C40088E98093C10086E08093C200089580
:101F80009091AC0D8091AB0D981791F08091AB0DB5
:101F90008F5F90E08093AB0DFC01E155F24F208103
:101FA0008091AA0D90E0982F8827820F911D0895A7
:101FB00080E091E008959091AC0D8091AB0D981761
:101FC00079F0E091AB0DEF5FF0E0E155F24F208149
:101FD0008091AA0D90E0982F8827820F911D089577
:101FE00080E091E008952091AE0D30E02F5F3F4FEB
:101FF0002F7733274091AD0D50E024173507D1F3EB
:10200000F901E155F14F80832093AE0D8091C1001D
:1020100080628093C1000895CF93DF93EC01899192
:10202000882319F00E94F30FFACFDF91CF91089522
:10203000CF93DF93FC018491EF012196882321F057
:102040000E94F30FFE01F7CFDF91CF9108958091A9
:10205000AC0D9091AB0D891B90E008958091AB0D74
:102060008093AC0D08951F920F920FB60F9211241A
:102070000BB60F922F933F934F935F938F939F9342
:10208000EF93FF934091C8005091CE00487180912A
:10209000A70C90E001968F7799272091A60C30E04D
:1020A0008217930739F08093A70CFC01E655F34F94
:1020B000508301C042E04093A50CFF91EF919F91A6
:1020C0008F915F914F913F912F910F900BBE0F9089
:1020D0000FBE0F901F9018951F920F920FB60F9280
:1020E00011240BB60F928F939F93EF93FF939091D0
:1020F000A90C8091A80C981779F08091A80C90E019
:1021000001968F7799278093A80CFC01E65DF24F2A
:1021100080818093CE0005C08091C9008F7D80931F
:10212000C900FF91EF919F918F910F900BBE0F907F
:102130000FBE0F901F9018951092A90C1092A80C2A
:102140001092A70C1092A60C97FF04C022E02093D7
:10215000C8009F779093CD008093CC0088E980934E
:10216000C90086E08093CA0008959091A70C8091E1
:10217000A60C9817A1F08091A60C90E001968F779D
:1021800099278093A60CFC01E655F34F208180919E
:10219000A50C90E0982F8827820F911D089580E06C
:1021A00091E008959091A70C8091A60C981789F062
:1021B000E091A60CF0E03196EF77FF27E655F34F5C
:1021C00020818091A50C90E0982F8827820F911D87
:1021D000089580E091E008952091A90C30E02F5FF0
:1021E0003F4F2F7733274091A80C50E02417350735
:1021F000D1F3F901E65DF24F80832093A90C809121
:10220000C90080628093C9000895CF93DF93EC01E9
:102210008991882319F00E94EC10FACFDF91CF91B9
:102220000895CF93DF93FC018491EF0121968823D9
:1022300021F00E94EC10FE01F7CFDF91CF910895BD
:102240008091A70C2091A60C90E080589F4F821B94
:1022500091098F77992708958091A60C8093A70CF8
:1022600008950C9411110C9405110F931F93CF93A3
:10227000DF9311E0CDE4D7E001E40E94B51090FDBA
:1022800032C092FD04C093FB222720F901C022E056
:1022900091FD26C0211124C08C3351F41093300FCE
:1022A00010922F0FFE01802F11928A95E9F7E5CF4A
:1022B0002091300F8E3329F4213091F40E941D03B8
:1022C0000FC02130D1F620912F0F203448F4E22F97
:1022D000F0E0E35BF84F80832F5F20932F0FCDCF8B
:1022E0001092300FCACFDF91CF911F910F910895B7
:1022F000AA1BBB1B51E107C0AA1FBB1FA617B7072C
:1023000010F0A61BB70B881F991F5A95A9F7809547
:102310009095BC01CD01089597FB072E16F400940B
:1023200007D077FD09D00E94781107FC05D03EF454
:10233000909581959F4F0895709561957F4F089571
:10234000EE0FFF1F0590F491E02D1994FC018827F2
:102350009927E89421912032E9F3293010F02E30AA
:10236000C8F32B3241F02D3239F4689404C00E9436
:102370006512820F911D219120532A30C0F31EF463
:10238000909581959F4F0895FB01DC018D910590FB
:1023900080190110D9F3990B0895DC01FB0141501C
:1023A000504070F00D900020D1F7119704C00590B7
:1023B0000D92002061F041505040C8F71C92BF01BF
:1023C00005900020E9F7E61BF70BAE0FBF1F08943E
:1023D000A80BB90BCD010895DC01FB014150504021
:1023E00058F049F005900D920020C1F7E61BF70B5D
:1023F0003197CF0108951C9205900020E9F7F6CFA0
:10240000FB01DC014150504030F08D910590801966
:1024100019F40020B9F7881B990B0895FB01DC0122
:102420004150504048F005900D920020C9F701C07E
:102430001D9241505040E0F70895DC01FB014150EE
:10244000504070F00D900020D1F7119704C001901A
:102450000D92002061F041505040C8F71C92BF011E
:1024600001900020E9F7E61BF70BAE0FBF1F0894A1
:10247000A80BB90BCD010895FB01DC014150504080
:1024800048F001900D920020C9F701C01D92415003
:102490005040E0F70895BB274A3031F4992322F4E5
:1024A000BDE2909581959F4F0C949012BB272A30E6
:1024B00051F4992342F4BDE2909580957095619511
:1024C0007F4F8F4F9F4F0C946E127AE0979F902D05
:1024D000879F802D910D11240895BB27FA01A62F07
:1024E0006217710581059105330B30FB66F0AA2751
:1024F000660F771F881F991FAA1FA21710F0A21B33
:1025000063953850A9F7A05DAA3308F0A95DA1939F
:1025100036F7B111B1931082CA010C940113BB2795
:10252000FB015527AA27880F991FAA1FA41710F08F
:10253000A41B83955051B9F7A05DAA3308F0A95D9B
:10254000A193009779F7B111B1931192CB010C943B
:102550000113DC01CB01FC01F999FECF06C0F2BDED
:10256000E1BDF89A319600B40D9241505040B8F751
:102570000895F999FECF92BD81BDF89A992780B54B
:102580000895A6E1B0E044E050E00C94AB12A8E15D
:10259000B0E042E050E00C94AB12DC01A40FB51F98
:1025A0004150504048F0CB01840F951F2E910E945E
:1025B000DE1241505040D0F70895262FF999FECFF2
:1025C00092BD81BDF89A019700B4021639F01FBA86
:1025D00020BD0FB6F894FA9AF99A0FBE08950396A3
:1025E000272F0E94DE120E94DD12252F0E94DE128C
:1025F000242F0C94DE120196272F0E94DE120C94D9
:10260000DD12DC01FC01672F71917723E1F732972E
:1026100004C07C916D9370836291AE17BF07C8F3BD
:062620000895F894FFCFBD
:1026260008080301013C6C6F673A6D6F746F725F47
:10263600636667207061737374206E6963687421C2
:0E2646003E003C4D432073746172743E0000F0
:00000001FF
